:020000040800F2
:10000000601D0020510100083D20000895190008DE
:1000100000000000000000000000000000000000E0
:100020000000000000000000000000002122000885
:1000300000000000000000000F010008C9220008B5
:100040006301000863010008630100086301000800
:1000500063010008630100086301000863010008F0
:100060000000000025070008630100086301000884
:10007000630100086301000800000000CD230008B0
:100080000000000000000000000000000000000070
:10009000A5230008000000006301000863010008B8
:1000A00000000000630100080000000000000000E4
:1000B0009D29000863010008000000000000000006
:1000C0000448854600F02EF900480047152B00082B
:1000D000C046C046601D0020084B196808682030E3
:1000E00080F30988022080F31488BFF36F8F3FBC30
:1000F000AE4608BC04BC62B61847000010000020E1
:10010000EFF3108072B6704780F310887047EFF3FA
:1001100009800E4B1A6820381060F0C044464D46E6
:1001200056465F46F0C008B572B603F015FA62B6DF
:100130000CBC116808681030F0C8A046A946B24649
:10014000BB4680F309882038F0C81847100000200B
:100150000448804704480047FEE7FEE7FEE7FEE765
:10016000FEE7FEE751230008C100000830B50B464A
:10017000014600202022012409E00D46D5409D4281
:1001800005D31D469540491B254695404019154607
:10019000521E002DF1DC30BD70B50024254600282C
:1001A00001DA01244042002901DA01254942FFF722
:1001B000DDFFAC4200D04042002C00D0494270BD6F
:1001C000F0B51FB40646002082B0054640240191D8
:1001D00000901BE0019922460F46304600F091F84E
:1001E000049A059B801A994110D31046194622465D
:1001F00000F077F8361A8F4101972246012000213E
:10020000009F00F06EF838184D4100902046641EA3
:100210000028DFDC019B00982946324607B0F0BD7C
:10022000F0B51FB486B000200090019002900698AF
:10023000069980B204900798090C02040014114337
:1002400007900027089D099806913E463C4603907A
:100250000398A9B20204000C039004982D0C1543D6
:1002600048430021224600F03CF8C7197141103480
:100270000E46402CECDB3846029A00F032F8009A29
:10028000019B801800905941029801911030029012
:100290004028CCDB00980BB0F0BD03460B439B0716
:1002A00003D009E008C9121F08C0042AFAD203E0EB
:1002B0000B780370401C491C521EF9D27047D2B211
:1002C00001E00270401C491EFBD270470022F6E795
:1002D00010B513460A4604461946FFF7F0FF2046BC
:1002E00010BD10B5202A04DB0146203A91400020C1
:1002F00010BD914020239C1A0346E34019439040CF
:1003000010BD10B5202A04DB0846203AD040002159
:1003100010BD0B46D340D0402024A21A9140084380
:10032000194610BD064C0125064E05E0E36807CCD2
:100330002B430C3C98471034B442F7D3FFF7C4FE6C
:10034000603B0008803B000870B58C180578401CA5
:100350006B075B0F01D10378401C2A1106D102788C
:10036000401C03E006780E70401C491C5B1EF9D14E
:100370002B0705D40023521E0DD40B70491CFAE73D
:100380000378401CCB1A921C03E01D780D70491CA9
:100390005B1C521EF9D5A142D8D3002070BD0000CD
:1003A00038B50446064805490068FFF7DFFE60439C
:1003B00000E0401E00900028FBD138BD40420F00F5
:1003C0000C00002008B509496B468878CA780002FD
:1003D00080180A795A7049791970042804D8044998
:1003E000800009581846884708BD00000C150020F9
:1003F0007C01002030B5124B00209A680146D207DC
:1004000003D09A68022422439A609A680124E40780
:1004100022439A600AE00022401C51419A6822431C
:100420009A60084D00222D1A8A4102D31A681205DB
:10043000F1D518680121C9020843186030BD0000D9
:100440000024014000127A00F8B50020194D1A4E20
:100450000346E96EAC6E4F07E2083A43A21A99418F
:100460000401A419E46812195941401CAA66E966FE
:100470000828EEDB10467E220023FFF7D1FE7D2107
:10048000C900FFF773FE0D4948430D490969FFF79D
:100490006DFE7D21C90048430A49FFF767FE0090C1
:1004A0006946094809880162694649884162012014
:1004B000F8BD000098120020DC180020A086010082
:1004C0006C000020390600007418002038B50E4872
:1004D000FF21448BC58B0D484B3140688008484351
:1004E000FF212D31FFF758FE001B64214843291BD3
:1004F000FFF752FE6A461E30507011701088044992
:1005000080B2C86100B238BD6000F81FDC1800205E
:10051000F4170020F8B50020174D184E0346E96C7B
:10052000AC6C4F07E2083A43A21A99410401A4199E
:10053000A46812195941401CAA64E9640828EEDB3A
:10054000104672220023FFF76BFE0D4A0023FFF7CF
:1005500067FE0C4A00231269FFF732FE9122002346
:10056000FFF72EFE009069460748098881626946B8
:100570004988C1620120F8BD98120020DC180020D3
:10058000102700006C00002074180020F8B500202F
:10059000144D154E0346E968AC68CF0662093A432C
:1005A000A21A99410401345912195941401CAA60F8
:1005B000E9600828EFDB10460C4A0023FFF730FE05
:1005C00004460B490090FFF7D1FD0A4908610A492A
:1005D0002046FFF7CBFD009068460188074801637D
:1005E0000120F8BD98120020DC18002076020000DF
:1005F0007E0900006C000020102700007418002005
:1006000070B52448C16A01221143C162C16A022245
:100610001143C162204903240868240702680123AA
:10062000A2431B07D21802601C4A01251068AD03C3
:100630000368AB4303601A4B18680668A64306605C
:10064000184800680468AC43046017482D0300682C
:100650000468A408A400641C0460144800680468CA
:10066000640864000460124800680468A408A400D8
:10067000046008680321046889068C4364190460D7
:1006800010686C130268A2430260186802688A430B
:10069000026070BD00100240EC010020000200204A
:1006A000F4010020A0010020040200200802002024
:1006B0000C02002070B5054C054D20682978884251
:1006C00003D001F0AFFD2078287070BDF417002032
:1006D0008000002000B587B01C2206496846FFF75D
:1006E000DCFD0021684602F09CFA0349086007B06F
:1006F00000BD0000183B00086800002000B587B06E
:100700001C2206496846FFF7C8FD0021684602F032
:1007100088FA0349C86007B000BD0000343B0008F8
:100720006C00002010B51049086880071AD50F48E2
:100730000123006802685A4002600D485B030068AC
:1007400002685A4002604868022210434860094823
:1007500001680902090E491C8170074801210068DF
:1007600002F006FA10BD000000000240A4010020C3
:10077000A00100209C0100207800002070470000AC
:1007800010B5044602F052F90949486821221201C5
:1007900090434860074800218A001318491C1B68D1
:1007A00089B2A3503A29F7D301F0C0FA002010BD56
:1007B000002002400000080810B502F037F9064892
:1007C000416821221201914341600448846801F08C
:1007D000ADFA204610BD00000020024000000808CD
:1007E00010B5044602F022F906494A6821200001AA
:1007F00082434A6004480068206001F097FA0020B4
:1008000010BD00000020024000000808F8B50546B1
:100810000C464035297C01290DD00121297401683D
:100820008A68520709D5416D202211434165002095
:1008300028740120F8BD0220F8BD174B6268D80566
:1008400047109A42154E8A6A236812D05B035B0BED
:100850001A438A622168490305D5B1680143B16032
:100860000A20FFF79DFD2068800312D5B068384349
:100870000EE05B035B0B9A438A622168490302D551
:10088000B1688143B1602068800302D5B068B84385
:10089000B06000202874F8BD01100000002701405E
:1008A00070B5040006D0606D26460025403600284D
:1008B00002D006E0012070BDA5653574204600F029
:1008C000D3F8606DC00603D420688168490705D558
:1008D000606D1021084360653574EBE7616DFF22A0
:1008E0000132914302221143616581685C4A8907A4
:1008F000890F012902D10168C9072BD1032361683F
:100900009B07994205D05B42994202D05B00994215
:1009100009D101698900890801612068016963685A
:10092000194301610CE0016989008908016190683F
:100930000F21890488439060906861680843906043
:100940002068C16818239943C1602068C168A36802
:100950001943C160906801214906884390609068FE
:10096000A18E49060843906020688168C90004D4BC
:10097000816801221207114381602068C168394AE9
:100980001140C1602069E268022825D0002002439E
:10099000204620300178037B49035B0019430A435A
:1009A000216B0A43A16989030A43E169C9030A4328
:1009B0002168CB681A43CA60616A0A46FF3AC23AA4
:1009C00005D0A26A11432268D3681943D1604278E6
:1009D0000121012A02D00BE00420D8E7007800288A
:1009E00023D0606D202210436065A06D0843A06590
:1009F000E06B012820681FD00169C90703D0016995
:100A000049084900016120684169C908C90041617C
:100A100020684169A26B11434161A565606D800842
:100A20008000401C6065002070BD2068C268012302
:100A30001B041A43C260DBE70269FF239B009A4351
:100A4000026120680269236CA66C1A43636C33430D
:100A50001A430261206802690A430261D3E7000079
:100A6000002701401902FEFF70B586B0064614212A
:100A70006846FFF72BFC1A49306888422DD1194986
:100A8000486B4A1510434863C86A01221043C86284
:100A9000C86A0025104005900720009003200190AF
:100AA000052069460295000700F06AF80E480F4CD1
:100AB00021C4256080206560A0604000E060656121
:100AC0008000A56120610948083C00F011F8002869
:100AD00001D0FFF753FEF464A66206B070BD0000BB
:100AE000002401400010024008000240C004002021
:100AF00070B504003CD01F48256814212818FFF762
:100B000035FB800060641C482064022120462030B0
:100B100041712A681949E3680A40A1686669194366
:100B2000236933431943A3691943E3691943236ACA
:100B30001943114329600122A1689203914210D008
:100B40000D4980318A6A636C1C2633400F259D4015
:100B5000AA438A62636C626833409A408B6A1A4384
:100B60008A620021E163012242710171084670BD71
:100B7000012070BDF8FFFDBF000002400F80FFFFA5
:100B8000F0B500228FE0012797403B407ED04C68B3
:100B9000012C05D0022C03D0112C01D0122C10D125
:100BA000856854000326A640B543CE68A6402E4370
:100BB000866044680D79BC43ED06ED0F95402543F2
:100BC0004560C66855000324AC408F68A643AF401B
:100BD0003743A646C7604C68022C01D0122C0ED1B8
:100BE000D408A4002418276AA4465607F40E0F263A
:100BF000A640B7430E69A6403E4364462662046899
:100C00007646B4430E79B607B60FAE40264306606B
:100C10004C68E40046D5274C656B01263543656377
:100C20009508254CAD002F19BD689407240F0F2699
:100C3000A640B54305263607B04201D100260FE095
:100C40001E4EB04201D101260AE01D4EB04201D134
:100C5000022605E01B4EB04201D1052600E0062623
:100C6000A6402E43BE60184D2C684E689C43F60388
:100C700000D51C432C606C684E689C43B60300D5BD
:100C80001C436C60AC684E689C4300E00AE0F602CE
:100C900000D51C43AC60EC684E689C43B60200D59E
:100CA0001C43EC60521C0B681C46D44000D06AE721
:100CB000F0BD0000001002400000014000040050A0
:100CC00000080050001C005000040140002A01D020
:100CD00081617047816270470148806870470000F9
:100CE00000000020024881680278891881607047FE
:100CF0000000002010B5084800240168402211437C
:100D00000160204600F00AF8002801D0012401E02B
:100D100000F026F8204610BD0020024070B50446C1
:100D20000D4D7D202978C000FFF720FA01460B48C1
:100D30000068FFF71BFA00F005FC002809D1042C1D
:100D400007D200222146401E00F020F800206C60EF
:100D500070BD012070BD0000000000200C000020CC
:100D60000448416B012211434163816B020411432A
:100D70008163704700100240C106C90E01208840FF
:100D8000014908607047000000E100E010B501F083
:100D900057F910BDF8B504460078534D80067AD552
:100DA000514800264038806BC00006D44E48403879
:100DB000816B02041143816301264C480168C90517
:100DC00010D40168821511430160FFF785FF0746C3
:100DD00004E0FFF781FFC01B64283AD8434800684D
:100DE000C005F6D54048403800680321090562680F
:100DF0000840114081420AD09003800F032806D199
:100E0000394840380068800301D50120F8BD2869C1
:100E100003210904084021D00A4082421ED02078D4
:100E200080061BD528692A6988430121C9040A4321
:100E30002A612A698A432A612861C0050ED5FFF715
:100E40004BFF074607E0FFF747FFC11B28488142D9
:100E500001D90320F8BD28698005F4D560688103B5
:100E6000890F032908D1204B403B19680322120542
:100E700091431040014319602869032261681204FC
:100E8000114008432861002E05D017484038826B76
:100E900001048A4382632078800705D5E8680C2125
:100EA0008843A1680843E8602078400706D5E868D1
:100EB000032189028843E1680843E860207800073D
:100EC00006D5E86803210903884321690843E860DF
:100ED0002078000606D5E868032189048843616903
:100EE0000843E8600020F8BD401002400070004058
:100EF00088130000F8B50E4604007DD05348006802
:100F0000C007C00FB0420AD25048016849084900E2
:100F1000314301600068C007C00FB04271D1207832
:100F20004B4F800705D5F868F0218843A168084336
:100F3000F8602078C00752D06068022817D00328D4
:100F400018D03968012818D08905002959DAF968BC
:100F5000890889000143F960FFF7BEFE0546606815
:100F6000022812D003281CD0012826D033E039688B
:100F70008903EAE739688901E7E74907E5E7FFF709
:100F8000ABFE411B3348814223D8F8680007800F2D
:100F90000228F4D123E0FFF79FFE411B2D48814238
:100FA00017D8F8680007800F0328F4D117E0FFF77F
:100FB00093FE411B274881420BD8F8680007800F39
:100FC0000128F4D10BE0FFF787FE411B2148814245
:100FD00001D90320F8BDF8680007800FF3D11B4842
:100FE0000168C907C90FB1420DD901684908490014
:100FF00031430160006800E003E0C007C00FB04269
:1010000001D00120F8BD2078400706D5F8680721F7
:1010100009028843E1680843F8602078000707D593
:10102000F8680721C90288432169C9000843F860AC
:1010300000F036F8F968084A0906090F515CC84003
:10104000064908600020FFF769FEF8BD0020024055
:101050000010024088130000F43A00080C00002041
:10106000044805490068C968044A4905490F515CAC
:10107000C84070470C000020001002400D3B0008E3
:10108000044805490068C968044A8904490F515C4D
:10109000C84070470C000020001002400D3B0008C3
:1010A00010B5194AD1680C230846184004280BD003
:1010B000082810D00C2810D050680004410F0120DF
:1010C000C003491C884010BD1068C00601D50F48F8
:1010D00010BD0F4810BD0F4810BD88020E4B000F09
:1010E000185C0902D368890F491CDB0301D5094A42
:1010F00005E01268D20601D5044A00E0044A5043D4
:10110000FFF734F810BD00000010024000093D0058
:101110000024F40000127A00043B0008FEB504002D
:101120007ED0FE4DEE680C20EF68064001200004E2
:1011300007402078C00747D0082E05D00C2E0AD1D2
:1011400001200004874206D1286880033CD56068EE
:101150000028E5D038E0012061680004814203D115
:1011600029680143296011E0052301221B04920430
:101170009942296802D111432960F1E7814329602E
:101180002968014000912868904328606068002821
:101190000DD0FFF7A1FD009005E0FFF79DFD009940
:1011A000401A64287DD828688003F6D50CE0FFF744
:1011B00093FD009005E0FFF78FFD0099401A642829
:1011C000F0D828688003F6D4207880075CD5E068E2
:1011D000810604D52A6820210A432A608843092110
:1011E000042E0DD00C2E01D1002F09D000283BD0A9
:1011F0002A688A4302432A60FFF76EFD074627E00C
:101200002A68520701D500288AD06A681F231B026A
:101210009A4323691B021A436A602A688A4300E0E2
:101220008CE102432A60FFF73BFFE96809060A0FD9
:10123000BB49895CC840BB4908600020FFF76EFDD0
:10124000002872D120E0FFF747FDC01B0228A9D873
:1012500028684007F7D568681F210902884321697B
:101260000902084368600FE02868400840002860D1
:10127000FFF732FD074604E0FFF72EFDC01B0228F2
:1012800090D828684007F7D42078C0065CD5002E97
:101290000CD0A06900282868A34947D008432860DB
:1012A00000E0C1E0FFF718FD07462CE02868800544
:1012B00002D5A0690028A7D06868072149038843A0
:1012C000216A084368606868217F0002000A0906F5
:1012D00008436860206A0121400BC903401C81401B
:1012E000E8680006020F8E48805CC1408D480160AE
:1012F0000020FFF713FD002817D125E0FFF7ECFCD5
:10130000C01B0228A3D828688005F7D56868072184
:1013100049038843216A084368606868217F0002A6
:10132000000A0906084368600EE0DEE08843286092
:10133000FFF7D2FC074604E0FFF7CEFCC01B0228F3
:1013400072D828688005F7D42078784F000724D514
:1013500060690028386910D0012108433861FFF71F
:10136000BBFC009005E0FFF7B7FC0099401A02288B
:101370005AD838698007F6D50FE040084000386138
:10138000FFF7AAFC009005E0FFF7A6FC0099401AC1
:10139000022849D838698007F6D42078400765D5F7
:1013A00000200190A86BC00006D4A86B012109079A
:1013B0000843A863012001905D480168C90512D463
:1013C00002461068911508431060FFF785FC0090F5
:1013D00005E0FFF781FC0099401A642824D854489E
:1013E0000068C005F5D55048A268824203D139692A
:1013F0000143396111E001218902002A07D0052348
:101400001B029A4203D13A690A433A61EFE73A690B
:1014100082433A61386988433861A06800280FD058
:10142000FFF75AFC009007E05EE0FFF755FC0099DB
:10143000411A4048814257D838698005F5D50DE0FA
:10144000FFF74AFC009006E0FFF746FC0099411ABE
:101450003848814248D838698005F5D40198002879
:1014600004D0A96B012000078143A963606A0028AA
:1014700066D00C2E3ED001273F060228286805D0F2
:10148000B8432860FFF728FC04462FE0B8432860E3
:10149000FFF722FC064604E0FFF71EFC801B022833
:1014A00022D828688001F7D4E16AA06A226B084339
:1014B000E968FD231B0499430A431043E860286848
:1014C00038432860FFF708FC044604E0FFF704FCFB
:1014D000001B022808D828688001F7D530E0FFF704
:1014E000FBFB001B022801D90320FEBD28688001F8
:1014F000F5D425E00128F8D0E86801210904A26AA2
:10150000014091421AD10F218904E26A01409142BF
:1015100014D1032189050840216B0DE00010024021
:10152000F43A00080C0000200001000040100240C6
:101530000070004088130000884201D00120FEBDE9
:101540000020FEBD094910B5401E884201D9012086
:1015500010BD074C60610321081F00F071FD0020E1
:10156000A06107202061002010BD0000FFFFFF00E8
:1015700000E000E010B5040003D0606F002802D046
:1015800007E0012010BD002170200155204600F029
:1015900027F8242060672068016849084900016035
:1015A000204601F0C7F80128ECD0606A002802D07C
:1015B000204600F0BBFF206841680922D202914317
:1015C0004160206881682A22914381602068016817
:1015D000012211430160204601F00EF810BD000009
:1015E00010B586B0044614216846FEF76FFE154913
:1015F0002068884224D11448816B0122520411438F
:101600008163C16A01221143C162C06A6946104008
:1016100005900320400200900220019000200290DB
:10162000032003900420049005200007FFF7A8FA88
:10163000002211461C20FFF7A9FB1C20FFF79CFB92
:1016400006B010BD0044004000100240F0B5836FAA
:10165000202B55D100290BD0002A09D00125836801
:101660002D03AB4206D10469002C03D1CC0701D075
:101670000120F0BD04466034267C012E40D00126B6
:1016800026744165014640310A834A830022FF26C1
:101690000266AB4204D10369002B13D1194B0AE057
:1016A0007F27002B09D001263607B3420CD10369EE
:1016B000002B05D03F238B8307E00369002B01D06B
:1016C0008F8302E08E8300E08A83C26722218167D4
:1016D00001688B68012633438B608168A94202D17F
:1016E000016900290AD0084901662274006801686E
:1016F000FF222132114301600020F0BD0349F3E7CE
:101700000220F0BDFF010000DD260008852600084C
:10171000704700008021084300B50649487006481C
:101720000078087003480021C030018600F072FB89
:1017300000BD00002C1300208000002070B513496C
:101740008A78C8780979022807D90E2A05D0002995
:1017500003D00320FFF7DEFF70BD0D4D2B21697014
:101760000C490E23097829700121AA1C2C468B54A0
:10177000C03402212186084980000958901E8847FC
:10178000208E401EA87000F045FB70BD0C15002097
:101790002C1300208000002090010020F8B51F4885
:1017A00000218278C3781202D5180279407912029A
:1017B0001418281980B26A4610803A2803D90220EA
:1017C000FFF7A8FFF8BD164F0320787015480122D7
:1017D000007838703846C03002860022BA70BB1CD0
:1017E00013E06A189600104A925B6E463280727857
:1017F000068EF254028E6E46521C92B202863678E3
:10180000D654028E521C0286491CA142E9D3008E96
:10181000401EB87000F0FEFAF8BD00000C15002064
:101820002C13002080000020F417002038B5154C40
:101830006A46A078E17800024018217951706179F8
:101840001170114D05216970104904220978297021
:101850002946C0310A8604280DD80D498000095850
:1018600068468847A078A870E078E87020792871E9
:101870006079687102E00320FFF74CFF00F0CAFABC
:1018800038BD00000C1500202C1300208000002023
:101890007C010020F8B5194D6A46A878E978000265
:1018A00041182879507068791070154E06207070B4
:1018B00014480422007830703046C030002402867C
:1018C0003A2903D30320FFF725FF14E00D4B8A00CC
:1018D00018339A5868460C4B00889200985089B289
:1018E000012201F0CDF828193119641C8078E4B286
:1018F0008870042CF7D300F08DFAF8BD0C15002089
:101900002C13002080000020F4170020F0B51D4BA0
:10191000002099781D798C460A02D9785C798E4628
:1019200052182902091953183A2B03D90320FFF73B
:10193000F1FEF0BD144B10265E70144E042736786D
:101940001E701E46C036378666469E707646DE702E
:101950001D715C710D4C0B4F18340D4D0CE04300A4
:10196000DB19DE791B7A3602F3181618B600A65971
:10197000B600401CAB51C0B28842F0D300F04AFA26
:10198000F0BD00000C1500202C130020800000206A
:10199000F4170020FEE7000070B52948416B42159E
:1019A00011434163274C0425606810220168012619
:1019B00049004908A9439143490849000160A068CA
:1019C000382102688A434B2189020A43C0218A4395
:1019D000A9010A43022132430A43CB029A4302601F
:1019E000E0681C230268920092089A43FF23E133C7
:1019F00010329A43603232430260A0698A0503685C
:101A000013430360A06803682B43036020690368E5
:101A100033430B432B4349040B430B490360886852
:101A20001043886060690722016811430160FEF776
:101A3000E1FC6068016831432943016070BD00002A
:101A400000100240C00100200027014008B51648E0
:101A500000F030F800F03AF8FEF7D2FD202000F058
:101A60004BF8FFF799FF00F035F901F065FC00F045
:101A7000CDF80E490860542069464870322008703D
:101A8000009800F07DF80A494023086802689A43EC
:101A900002604868012302681A43026008685A031A
:101AA00001689143016008BDEC160020F417002086
:101AB000A001002010B5FF21044601800830FEF788
:101AC00005FC0020A0806080E08010BD08B500F01B
:101AD000ADF80F210098090388430D210903401830
:101AE000000B01210003C9024018009068460088DD
:101AF00001F072FD08BD000010B51B490A6B0123FF
:101B00001A430A6319491A4C09680A689A430A6019
:101B1000184A1461184C5461D060032208681203FB
:101B200090431A0380181022904320221043402231
:101B3000904380221043432212029043FF3003223D
:101B4000FF30920202309043DA0280180860094A9E
:101B50000020803290620868022210431843086017
:101B600006491002086010BD00100240C0010020AC
:101B70004024014000000240DC18002000E100E0A9
:101B800070B50546FEF718FE002806D00024FEF7C3
:101B900013FEA84203D0012102E00124F7E700214F
:101BA0000C4302D0284600F055FB16480078132855
:101BB00026D9142000F036FB7D20012222210001CD
:101BC00000F05EFF01222321192000F059FF0122BD
:101BD0002421192000F054FF01222521052000F0C6
:101BE0004FFF01222721142000F04AFF01222F215C
:101BF000322000F045FF01223421034800F040FF6D
:101C000070BD000080000020950F000008B56846F8
:101C1000FEF7E6FD00980449002803D00A789042B8
:101C200000D20870087808BD80000020F0B5244A72
:101C3000D06A01210843D0622248032301681B02B5
:101C40000D689C009D43FF35FF350235A543D61432
:101C5000AD191E01B54301267603AE199D0101277A
:101C6000AE43FF03F6190E604168174F0E68BE437E
:101C7000360136090E6081680E689E43FF360136D4
:101C8000A6431315F318A400A34394141B19AB43E4
:101C9000A5005B190B60516B214351630B493C223A
:101CA0000A6044224A60C168094B0A681A439B10C3
:101CB0009A430A6000690422016811430160F0BD83
:101CC00000100240EC0100200000FF0F0030014036
:101CD000030800001248416B20221143416311495F
:101CE0003123C8691B0102689A430260FF230E4A30
:101CF0004E339362FF23C333D362026880231A43B7
:101D00000260086A702302689A4320320260C86940
:101D100008220168914301221143016070470000CD
:101D200000100240C00100200014014001200A49B7
:101D30000A4A01E030BF401C8B69DB0701D09042AA
:101D4000F8D348680322120490434860486801228F
:101D500010434860704700000020024070170000E8
:101D600010B50A68064B424008200A60D40702D02A
:101D700052085A4000E052080A60401EF6D110BDD9
:101D800001A0000010B5017A002935D01B490B785D
:101D90001B4A14780022A3422AD14B78012B1BD076
:101DA0004B78022B18D04B78042B15D04B78052B91
:101DB00012D04B78062B0FD04B78032B0CD04B78DE
:101DC0000F2B0BD04B78102B08D049782B2908D03B
:101DD00042600272002010BD082103E089790931B8
:101DE00000E0072102724068884205D1032010BD3F
:101DF00042600272012010BD022010BDFE150020BD
:101E00008000002002490022C878CA707047000094
:101E10008000002005484178002901D0002070474B
:101E20000021816001214170084670478000002038
:101E3000F8B5204F1E4C1D48E0603D463878F2351D
:101E4000287001212161214600260C31FFF788FF0F
:101E5000216978786854491C216121460C31FFF7CB
:101E60007FFFA6603E46C0360CE0381821698078B6
:101E70006854491C21610E490C31FFF771FFA068BD
:101E8000401CA060318EA0688142EED82169A089F3
:101E90006854000A491C68540648491CF230216104
:101EA00000F0DAFB00206070F8BD0000FFFF0000CA
:101EB000800000202C1300201CB500212748009131
:101EC000254A01910260C1631205426001248160CC
:101ED0000222046182630246C16020321170517097
:101EE000A30283629B104362117301638161042228
:101EF00041634261C161FEF7D3FC002801D0FEF7C7
:101F00003DFC012000030190694600941348FEF750
:101F10007DFC002801D0FEF731FC11480090694695
:101F20000E48FEF773FC002801D0FEF727FC0D4891
:101F3000009069460948FEF769FC002801D0FEF7C9
:101F40001DFC0948009069460448FEF75FFC002824
:101F500001D0FEF713FC1CBD0024014064040020E6
:101F600002000004040000080000044810B5FEF759
:101F7000B1FBFEF7C3FB10BD30B587B01421684636
:101F8000FEF7A4F91048C16A01242143C162C16A65
:101F900021400591C26A02210A43C262C06A0B4D08
:101FA00008400590002241212846FEF78FFE0021BF
:101FB0004120029103910090019469462846FEF762
:101FC000DFFD07B030BD00000010024000040050EB
:101FD00010B5164814490160E12149024160002111
:101FE0008160C16001618161C1610C220162426155
:101FF0004162FFF7BFFA002801D0FEF7BFFB0C4893
:102000000122006892060168114301600948D2105C
:102010000068016811430160074800680168090E03
:1020200009061631016010BD00440040080500207B
:10203000A8010020B0010020B80100207047000076
:102040008307FF22DB0E9A408907090E994000287A
:102050000BDA0007000F0838830808489B0018189F
:10206000C36993430B43C3617047830804489B00D3
:102070001818036893430B430360704700ED00E0BA
:1020800000E400E08307FF22DB0E9A408907090E77
:10209000994000280BDA0007000F08388308084829
:1020A0009B001818C36993430B43C36170478308AF
:1020B00004489B001818036893430B430360704760
:1020C00000ED00E000E400E010B5094B09491A6892
:1020D0004868824202D10020C04310BD064A9042A7
:1020E00000D94A63186080B201F062FA012010BD85
:1020F0001813002074180020FF0F0000054906483F
:102100000A8A806D824203D080B208820349C86285
:1021100001207047181300207418002000080140A7
:1021200010B50C4B0C485A68416B8A4202D1002012
:10213000C04310BD00290AD0084A914200D9426329
:10214000406B586080B201F05FFA012010BD0121A0
:102150004163F5E71813002074180020FC08000004
:10216000F0B50546FFF70EFE294F3C46BE1CC034B5
:1021700003280AD027488078022847D1208E0228D9
:1021800044D3801E208600252EE023480078387036
:102190002048224941611F4938781431FFF7E0FD9A
:1021A0001D4840781B4978701431FFF7D9FD002293
:1021B0002286022008E01849095C238E9955218E59
:1021C000491C401C2186C0B269688142F3D811487D
:1021D000022181706A60D1E70E4978198078143144
:1021E000FFF7BEFD6D1CEDB2208EA842F4D8084961
:1021F00080B2825DC91C405C00021118054842692A
:10220000914201D10121C17000218170F0BD000017
:102210000C15002080000020FE150020FFFF0000AC
:102220007047000010B5044600F000FC074A5368F0
:1022300021200001834353600548214600F016FC2D
:102240000446FFF773FD204610BD00000020024049
:102250000000080810B5044600F0E8FB074A536880
:1022600021200001834353602146054800F0FEFB16
:102270000446FFF75BFD204610BD00000020024031
:102280000800080870B500250646ED43002400F05C
:10229000CDFB0B4841682122120191434160094B5B
:1022A000A200B158D01800F0E1FB002800DA3A246F
:1022B000641CA4B23A2CF3D3FFF738FD284670BD56
:1022C000002002400000080810B5FEF70BFD01F0E9
:1022D0000FFB012801D001F0F9F910BD30B599B01C
:1022E00034216846FDF7F2FF14210DA8FDF7EEFF3B
:1022F000182112A8FDF7EAFF144801680322D20250
:102300009143C21489180160022501200390102016
:102310000995049003200024800500950C900A94F0
:102320000B946846FEF7FAFE0F200D9003200E90E6
:102330000F941094002111940DA8FEF7DBFD12A854
:1023400012951494FEF726FD19B030BD00700040C0
:1023500010480168821511430160C1680E4A11409E
:10236000C16001680D4A1140016081684908490057
:10237000816001680122920491430160C168FD22DD
:1023800012049143C160002101610549C0038860C6
:1023900070470000001002400C40FF88F6FFF6FE78
:1023A00000ED00E007480169C9070AD00169490842
:1023B000490001610448012200685203016851404C
:1023C0000160704700080140A00100200120800743
:1023D0000169C90703D001694908490001617047D3
:1023E000204800210172204D204C4160FEF762F927
:1023F0001C48FFF7B5FEFFF705FD00282DD020781B
:102400002978884222D16078062810D004DC03287D
:102410000AD0052804D10DE010280ED02B2812D0A8
:102420000120FFF777F918E0FFF7B8F915E0FFF79B
:1024300031FA12E0FFF7FAF90FE0FFF767FA0C48FC
:10244000FFF720FF09E0FFF779F906E0002804D143
:102450006078052801D1FDF7B5FF00F05DF800F0C8
:102460000CFCC3E778120020800000200C1500202F
:10247000F41700200EB523484022006801689143FC
:1024800001602148FEF77CF91F4D0120A8611F481B
:10249000002484701E48446004608460C46001208D
:1024A000C00201F0D7F8032000F054FB284680302A
:1024B000808E80B201F0A8F8032000F04BFB144896
:1024C00090300460204601F073F81248641E0068E2
:1024D000018829614088686122460121684600F030
:1024E00073FBFDF7F3FFFEF751F8FEF713F8FDF766
:1024F000ABFFFFF715FEFFF7E7FDFFF7FFFD00F06D
:10250000BCFBE9E7A0010020F41700209C0100209B
:1025100088120020BC01002010B503484078002834
:1025200001D0FFF785FC10BD8000002010B5818C24
:10253000C90707D001684A6801235B049A43836A8C
:102540001A434A60818C890707D501684A680123CC
:102550001B049A43C36A1A434A60818C490707D512
:1025600001684A6801239B049A43036B1A434A603B
:10257000818C090707D501684A680123DB039A4368
:10258000436B1A434A60818CC90607D501688A6883
:1025900001231B039A43836B1A438A60818C89064B
:1025A00007D501688A6801235B039A43C36B1A430A
:1025B0008A60818C490612D501684B680122120598
:1025C000046C934323434B60016C914207D1016833
:1025D0004A6803235B059A43436C1A434A60818C23
:1025E000090607D501684A680123DB04806C9A4319
:1025F00002434A6010BD0000F8B500250446C567D7
:10260000FEF76AFB074620680068124E000709D5EE
:1026100001213B46002249052046009600F08EF934
:1026200000280DD12068006840070BD501213B46EA
:10263000002289052046009600F080F9002801D08C
:102640000320F8BD20206067A06760342574002057
:10265000F8BD0000FFFFFF0130B50C460546002322
:1026600003E0E85C5B1C00F003F8A342F9D330BD43
:10267000034900224A62CA695206FCD58862704743
:102680000044004010B502464032938B846F0168CD
:10269000222C04D0886908221043886110BD496A41
:1026A000446D19402180416D891C4165518B491E43
:1026B0005183518B0029F1D101680A68FF2321332E
:1026C0009A430A6001688A68520852008A60202191
:1026D000816700210166FFF71BF810BD10B50246A7
:1026E0004032938B846F0168222C04D088690822C1
:1026F0001043886110BD496A1940436D1970416DDE
:10270000491C4165518B491E5183518B0029F1D1E0
:1027100001680A68FF2321339A430A6001688A68C6
:10272000520852008A602021816700210166FEF76D
:10273000EFFF10BDF8B504462669A368E769334387
:102740006669102100203E4322683343166805461F
:10275000704F3E401E4316602268536803263603BE
:10276000B343E668334353606B4E2368A269B342B8
:1027700001D0266A32439E680B273F02BE431643B0
:102780009E60664A2368664E93420AD1F2680C2620
:10279000324025D0042A27D0082A23D00C2A10D171
:1027A0000EE05D4A93420CD1F2680326B602324035
:1027B00016D01E15921B17D0921B13D0B24200D117
:1027C0000821554E564AF713403AB34235D10029F5
:1027D0000CD002290DD0042912D008291CD113E0F5
:1027E0000021EEE70221ECE70421EAE7FEF738FCDE
:1027F00008E01068C00601D54A4F05E04A4F03E0E3
:10280000FEF74EFC070008D0626850001018B8426E
:1028100002D81003B84201D2012576E0390E3E02FB
:102820005008002330185941FDF7CAFC0321090262
:102830003E4A411A914266D9EEE7E3693C4EBB42FB
:1028400035D10B0000F044F90906090C251A25259D
:1028500025202500FEF704FC12E0FEF711FC0FE036
:1028600010686168C00602D54808324A01E0324A61
:1028700048088018FDF77AFC80B20BE0FEF710FCE8
:10288000616840004A08F4E76168012248081204C0
:10289000EFE7012501461039B142BDD82449491C52
:1028A00001400007420F20680A43C2602DE00B0080
:1028B00000F00EF90906090C241A2424242024000F
:1028C000FEF7CEFB12E0FEF7DBFB0FE0106861685D
:1028D000C00602D54A08134801E013484A081018F8
:1028E000FDF744FC80B20AE0FEF7DAFB61684A08B3
:1028F0008018F5E761684808C019F1E7012501462D
:102900001039B14288D82168C8600020206660660E
:102910002846F8BDF369FFEF00480040004400403E
:102920004010024000093D000024F400FFFC0F00AD
:10293000EFFF000000127A000048E801FFB581B007
:102940001E46174604460A9D08E0681C06D0FEF79E
:10295000C3F9801BA8420CD8002D0AD02068C16999
:102960000298884318D00020B842EED0002005B06D
:10297000F0BD20680168FF22A13291430160206808
:10298000816849084900816020206067A0670020B5
:10299000603420740320EAE70120E5E7F0B51C4C21
:1029A00020272068FA0001681A4EB943914301605C
:1029B0003168194B0868194D82060DD51848416ACF
:1029C000184A58681154401C00215860ED2800D95D
:1029D00059601548018007E00C2210430860286800
:1029E000022201681143016030680088000507D5A4
:1029F000286801220168D202114301600120187287
:102A00002068FF2201680132394311430160F0BDA3
:102A1000A8010020AC01002078120020B4010020A1
:102A200000440040FE1500208400002001200B49D6
:102A30000B4A01E030BF401C8B69DB0701D090429C
:102A4000F8D34868C00703D00648C8600648C86085
:102A50004868032212041043486070470020024077
:102A600070170000EFCDAB8905040302016030BF91
:102A70000068884202D00020C043704700207047A1
:102A8000F0B516468D190C4607463A2D02DB00209C
:102A9000C043F0BDFFF7CAFF0B494868212212016D
:102AA000904348600022094B08E0A000C018394656
:102AB000FFF7DCFF641C4519A4B2521CB242F4DBE0
:102AC000FFF734F92846F0BD002002400000080856
:102AD00030B47446641E2578641CAB4200D21D4697
:102AE000635D5B00E31830BC184702E008C8121FA2
:102AF00008C1002AFAD170477047002001E001C1E7
:102B0000121F002AFBD17047EFF30580002800D088
:102B100001207047FEF7EEF8FFF7E0FBFFF72CFA15
:102B2000FFF756FAFFF7C8F9012205A10548FEF79D
:102B30008DFDFEF78BFFFFF719FA00F013F8FEE7A3
:102B40003F0000000805002001460020842900D035
:102B5000C81C704710B5002800D1012000F0B0FC5F
:102B6000002010BD10B500F0C3FC002010BD000017
:102B7000FEB500220C46054601920292FFF7C4FF03
:102B80000126F607002810D001A8009002AB012210
:102B90002146284600F04AFE01280ED1019800285F
:102BA0000DD00849F008486009E002AB0122214637
:102BB000284600F0E9FD012801D03046FEBD02980C
:102BC000FEBD000000ED00E0FEB5002605460F4604
:102BD00034460196501C08D0002A00D01446FFF756
:102BE00093FF002804D0822016E00024E443F6E797
:102BF00023463946002001AA00F0E8FE012805D04E
:102C0000002C01D0402007E0009606E00198002843
:102C100001DA862000E0082000906B4607CB07C54C
:102C2000FEBD7FB50D46044641690820205E00299F
:102C300011D0A16900290ED0FFF786FF6B46A2696B
:102C4000616907C32B4622692168606800F079FD3D
:102C5000039004B070BDFFF777FF03A901910090C6
:102C6000208A2B4682B22168606800F041FD01286D
:102C700001D00020EDE70398EBE710B500F014FC5D
:102C8000002010BDF8B5134E0F4675690446306834
:102C9000001D00F07DFB601C07D1002F05D03168BE
:102CA0000D48091D00F0B8FBF8BD30682C194460D0
:102CB0003168AC4204D2B068091D00F095FBF8BD44
:102CC0007068091D00F090FB306B8442F7D23463CA
:102CD000F8BD00001000002064060020F8B505468D
:102CE00000F0A6FB294E3069401C30613068284F47
:102CF000002803D0F069002827D02CE03560306927
:102D0000012828D1002414206043C01900F05EFB84
:102D1000641C072CF7D31E488C3000F057FB1C486E
:102D2000A03000F053FB1A48B43000F04FFB1848B5
:102D3000C83000F04BFB1648DC3000F047FB14486D
:102D40008C3070601430B06005E03068E96AC06AA9
:102D5000884200D83560F06A401CF062E86AB169C8
:102D6000884200D9B06114214843C019291D00F0E0
:102D700053FB00F069FBF069002806D03068E96A6F
:102D8000C06A884201D200F08FFBF8BD100000201D
:102D90008805002010B504464030407C002805D04E
:102DA000012806D0022807D072B6FEE7206B00F09B
:102DB00059FB204600F056FB10BD000003210E48D1
:102DC0008902420705D0C01DC0080B4AC000821A04
:102DD000891A0A4B0022411805C30839C908C900DD
:102DE000183B19604A600A600A1A06C09A600120FE
:102DF000C0075A60D8607047780600205C00002049
:102E00000F4E104D3746C83F11E000F011FBF0683F
:102E1000C468201D00F0BCFA2869401E2861E868DB
:102E2000401EE86000F010FB2046FFF7B3FFE868A3
:102E30000028EAD138680128F9D900F035FBF6E717
:102E40005006002010000020FFB581B00C9C9000BF
:102E5000236B001F1818C6080A9DF600700701D0E2
:102E600072B6FEE723180A5C20331A750A5C002A42
:102E700002D0401C1028F5D3204640300027009097
:102E8000C770072D00D30625E562A764201D656481
:102E900000F0A7FA2046183000F0A3FA24610720BA
:102EA000401B6462A061E764009807743046049A8E
:102EB000019900F09FF820600B98002800D0046072
:102EC00005B0F0BD30B5114900E011460A688242F4
:102ED000FBD34B685C18844203D1406818184860E3
:102EE000084643681C18944209D1084C103C2468D9
:102EF000A24209D052689A1842600A6812680260B9
:102F0000814200D0086030BD0460F9E75C00002019
:102F1000064841680968002905D04168C968C96840
:102F20004968016370470021C943FAE71000002097
:102F300003480068401C72B600D0FEE7FEE70000C0
:102F400064000020F8B50546002600F0FDFA284F81
:102F50003868002801D1FFF731FFF86805423FD1FA
:102F6000002D3DD00835680708D06807400F0821BC
:102F7000081A4519680701D072B6FEE7002D2FD058
:102F8000786885422CD81A4910310846046801E057
:102F9000214604466068A84202D220680028F7D182
:102FA000386884421CD00E68206808606068083663
:102FB000411B102908D96019420701D072B6FEE7FB
:102FC00041606560FFF77EFF61687868401A78604D
:102FD000BA68904200D2B860F8680143002003C488
:102FE00000F032FD700701D072B6FEE73046F8BD42
:102FF0004C00002010B50124031F24061C601B1F79
:103000001960191F024B0B60143940380A6010BD5B
:10301000312F000809490388012292030968002B17
:1030200002D10B6893430B600088FF231B02984278
:1030300002D108681043086001207047A0010020F9
:103040000088FF210902884211D10A4880690628B8
:1030500005D10949094A08681040C030086008498C
:103060000020486008608860C86006490860012048
:1030700070470000F41700209C0100203F00FFFF74
:103080008812002074000020F0B530A106C985B078
:10309000009101922FA106C9029103922FA1096804
:1030A00004910146C0310A8E0123541C0C86801CF9
:1030B00013540A8E0027541C0C8613540A8E0324C2
:1030C000531C0B8617540A8E0726531C0B86175465
:1030D0000A8E531C0B8614540A8E531C0B861754ED
:1030E0000A8E531C0B86165400226B469D5C0B8E79
:1030F000521C5C1C0C861D54072AF6DB0A8E531CDE
:103100000B8617540A8E531C0B861654002202ABF2
:103110009D5C0B8E521C5C1C0C861D54072AF6DB32
:103120000A8E04AD531C0B8617540A8E531C0B8653
:10313000165400220B8EAC5C5E1C0E86521C1C5476
:10314000042AF7DB002005B0F0BD0000494E464ED2
:10315000204E410054324B204441510056362E300F
:103160000020C04370470000F0B504465AA007C8CD
:1031700089B005AB07C314225AA16846FDF78DF844
:103180002146C031088E0122431C0B86A41C025527
:10319000088E0326431C0B860255088E0023451C0F
:1031A0000D860355088E6927451C0D860355088E2C
:1031B000451C0D860655088E2E26451C0D8603558A
:1031C000088E0B23451C0D860355088E7723451C5E
:1031D0000D860355088E451C0D860355088E451C2B
:1031E0000D860355088E431C0B860655088E431C1E
:1031F0000B860755088E6E23451C0D860355088ED9
:103200006625431C0B860555088E431C0B86055509
:10321000088E431C0B860655088E431C0B860755EB
:10322000088E7423451C0D860355088E451C0D869B
:103230000255088E0B22451C0D860255088E502221
:10324000451C0D860255088E7222451C0D860255BE
:10325000088E6F22451C0D860255088E6422451C7F
:103260000D860255088E7522451C0D860255088E66
:103270006322451C0D860255088E05AD421C0A8648
:103280000355088E0222431C0B860255088E092224
:10329000431C0B86025500200A8E2B5C561C0E86A2
:1032A000401C13550928F7DB088E0323421C0A86AD
:1032B0000355088E1323421C0A86035500206D46D1
:1032C0000A8E2B5C561C0E86401C13551328F7DB08
:1032D000002009B0F0BD00004D6F64656C4E616D5B
:1032E00065000000557365724170706C69636174AC
:1032F000696F6E4E616D65000120704703880B4950
:103300000B4A002B03D10B68134040330B6000883D
:10331000FF231B02984207D106488069012803D188
:103320000868104080300860012070479C01002030
:103330003F00FFFFF417002010B51048416B042236
:10334000114341634B2149010D480E4B01665982DF
:10335000192282650C481A828162C262C268012108
:103360000A43C26002680A43026008050749086010
:1033700002211420FEF786FE10BD0000001002405E
:1033800074180020181300200008014000E100E03C
:103390004368826801699A60836842685A604A6833
:1033A000824201D182684A60002202610868401EA0
:1033B0000860086870470000034B036018465430EB
:1033C000086080201060704710020020014608311C
:1033D00000224160D243C16082600161002101602E
:1033E000704700210161704730B50C68621C02D043
:1033F0000246083202E0026904E01A4653681D687A
:10340000A542FAD953684B6099608A60516008619F
:103410000168491C016030BD42684A6093688B6056
:1034200093685960916008610168491C01607047A8
:1034300072B604480168491C0160BFF34F8FBFF3A7
:103440006F8F70476400002005490868002804D089
:10345000401E086000D162B6704772B6FEE70000F9
:103460006400002070B500281AD004460D4D083CB9
:103470006068E968084201D172B6FEE72268002A56
:1034800001D072B6FEE78843606000F05DF86068C6
:103490006968401868602046FFF714FD00F0D4FA10
:1034A00070BD00004C000020012004490007486066
:1034B000BFF34F8FBFF36F8F7047000000ED00E048
:1034C00010B502000FD00948806B002801D072B6F9
:1034D000FEE700F039F800211046FFF7D3FB00F0BB
:1034E000B3FA002801D1FFF7DFFF10BD1000002064
:1034F00010B586B00024039405AA04A903A8049477
:10350000FFF75AFF04990398009401910290002359
:1035100009A10B48059A00F014F90A4900284863EC
:1035200008D072B60020C04308630120C8614C6116
:1035300000F0A4F806B010BD49444C45000000005E
:10354000012E0008100000200248816B491C816395
:10355000704700001000002010B5134B986B002836
:1035600002D00120586210BD0020586298690F49AE
:1035700002E0002815D0401E142242438A58002A37
:10358000F7D01422424351184A680C465268083456
:103590004A60A24201D152684A60D16819609861BC
:1035A00010BD72B6FEE70000100000208805002064
:1035B00008B50F220099120391430522520389187E
:1035C000090B00050903000D0143684600910088BE
:1035D00000F002F808BD000010B509494024C96890
:1035E0000A6822430A60074A93689B07FCD5D060AB
:1035F00090688007FCD50868A0430860002010BDD3
:10360000EC010020003001400F4908B548430F4944
:10361000FCF7ACFD0E49096D814201D2002000E0AB
:10362000081A0F22009912039143092212038918E4
:10363000090B00050903000D01436846009100884D
:10364000FFF7CAFF08BD0000D29B0000445C0000E9
:103650007418002008B50F220099120391430D221F
:1036600012038918090B00050903000D0143684680
:1036700000910088FFF7B0FF08BD000070B50F484B
:10368000016AFF22120411430162016A120211430E
:1036900001620B4C00252561A5610A487D21C90006
:1036A0000068FCF763FD401E60610720206106484A
:1036B0000560FCF711FD002070BD000000ED00E08A
:1036C00000E000E00C0000206400002010B5FCF7D2
:1036D00017FD044600F01CF9002803D0012003491F
:1036E000000748602046FCF70FFD10BD00ED00E02C
:1036F000FFB585B0164690000F9FFFF723FC05002D
:103700001CD05420FFF71EFC040014D000205121CF
:10371000256308550E990091039001970294324653
:10372000089B06990598FFF78FFB2046FFF7D6FA0E
:10373000012009B0F0BD2846FFF794FE0020C043E9
:10374000F7E7F0B585B007460B9D0C9C0A98002D55
:1037500015D0002C15D05426256302255126355549
:10376000002504AE00900196039502943846FFF7B9
:103770006BFB2046FFF7B2FA049805B0F0BD72B6B5
:10378000FEE772B6FEE70000FFB5012681B01F46D6
:103790000D46002814D00446FFF74AFE002F01D042
:1037A000E06C3860204640300146007C02220A74FA
:1037B00003990B00FFF78CF9051006090F0D100097
:1037C00072B6FEE7E16C294301E0E16C491CE1645B
:1037D00002E0022803D0E564012802D01DE00026A3
:1037E0001BE0201DFFF7D4FD0E4DE06AA969884259
:1037F00000D9A861142148430B494018211DFFF747
:103800000BFEA06A002801D072B6FEE7E06A2968C4
:10381000C96A884201D9FFF747FEFFF715FE304617
:1038200005B0F0BD1000002088050020FFB501267E
:1038300081B01F460D46002815D00446FCF760FCF9
:103840000090002F01D0E06C3860204640300146E7
:10385000007C02220A7403990B00FFF739F9051066
:1038600006090F0D100072B6FEE7E16C294301E076
:10387000E16C491CE16402E0022803D0E564012800
:1038800002D02AE0002628E0A06A002801D072B603
:10389000FEE7154DA86B002803D0214618311348C8
:1038A0000DE0201DFFF774FDE06AA969884200D988
:1038B000A861142148430D49B4394018211DFFF770
:1038C000ABFDE06A2968C96A884206D90A980121D5
:1038D000002801D0016000E069620098FCF714FC48
:1038E000304605B0F0BD0000100000203C0600206E
:1038F0000648C169002904D0806B002803D000204D
:10390000704701207047022070470000100000201F
:10391000F8B52C4F0026B86B002808D0386A401C38
:103920003862786A002800D001263046F8BD7D69EB
:103930006D1C7D610ED178680068002801D072B6D8
:10394000FEE77868B9687960B860B86A401CB86208
:10395000FFF7DEFA386B85420AD3786800680028E2
:1039600010D07868C068C468606885420DD238633A
:1039700038681421C06A4843134908580128D0D92F
:103980000126CEE70020C043F1E7201DFFF700FD30
:10399000A06A002803D020461830FFF7F9FCE06A3F
:1039A000B969884200D9B8611421484306494018D2
:1039B000211DFFF731FDE06A3968C96A8842CCD31E
:1039C0000126CAE71000002088050020FFB581B05D
:1039D0001E4615460746FFF72BFD1A4C206840305F
:1039E000007C02280ED02068C16CB943C1642068F5
:1039F000012140300174002E04D03046FFF742F917
:103A0000FFF752FDFFF720FDFFF712FD002D02D05A
:103A10002068C06C286020684030007C022801D0FB
:103A2000002505E02068C16C029A9143C16401251C
:103A30002068002140300174FFF706FD284605B0DC
:103A4000F0BD000010000020F8B5284D0024A86B40
:103A50002746002808D0FFF7EBFCA86B401EA863A0
:103A6000A86B002802D03CE072B6FEE72869012668
:103A700000281BD135E0C068C46820461830FFF725
:103A800087FC201DFFF784FCE06AA969884200D901
:103A9000A8611421484316494018211DFFF7BCFCBA
:103AA000E06A2968C96A884200D36E621048B4305F
:103AB00001680029DFD1002C01D0FFF729FA2C6A18
:103AC000002C08D0FFF724FF002800D06E62641E8F
:103AD000F8D100202862686A002802D00127FFF789
:103AE000E3FCFFF7B1FC3846F8BD000010000020F1
:103AF000880500200000000000000000010203040F
:103B000006070809030406080C10182030000000FE
:103B10000001020304000000503B0008E1230008FC
:103B2000FDFF000001000000800000000000000018
:103B300000000000583B000875240008FDFF00004D
:103B400001000000800000000000000000000000F4
:103B50005461736B303100005461736B303200007C
:103B6000803B00080000002010020000480300080D
:103B70005C3C000810020020501B0000FA2A0008DC
:103B8000320192040255201AAA010118B214CBFF87
:103B9000FF08323A5A020829049A050C3208320901
:103BA000320A320B320C320D320E320F3210321119
:103BB00032125A136832153216321732189A1950C7
:103BC0000912043221322232233224322532260ACB
:103BD0001527305A2D08322F3230323132323233FB
:103BE0003234323532365A382813F9321B08FD0484
:103BF0001341301B08150429101361311B08890C6F
:103C00001A69084119B814501404125012441B4088
:103C10001C041A04041A20041A1404126414F81F51
:103C20000818080240082401400C041A10041A283D
:103C3000041A140415082701401D1401400404311E
:103C40001B400404311B5020041A0C04111A301CB0
:0C3C50002904290C19601A04041A0C0441
:04000005080000C12E
:00000001FF
